:1000000012C02CC02BC02AC081C128C027C026C066
:1000100025C0DDC123C022C021C020C01FC01EC01A
:100020001DC01CC01BC011241FBECFE5D4E0DEBF25
:10003000CDBF10E0A0E6B0E0E6EAF7E002C0059030
:100040000D92A836B107D9F710E0A8E6B0E001C0DC
:100050001D92AD38B107E1F71BD0A3C3D1CFA8984B
:10006000A09817B887E886B90895369A349BFECFD2
:1000700084B195B190936E0080936D008050944050
:1000800030F08FEF93E090936E0080936D000895B1
:10009000DF92EF92FF920F931F93CF93DF93B89A63
:1000A000C098B99AC198BA9AC298A39AAB98A298E4
:1000B000AA9AA59AAD98A498AC9A8A9A9298889888
:1000C000909ABB9AC398BC98C49A63D3C8DF10D1E6
:1000D00017D1C09A88E893E120E931E0F90131971E
:1000E000F1F70197D9F7C0987894809163008F3F1A
:1000F000E1F3809163008823C1F72EE088E190E06E
:100100000FB6F894A89581BD0FBE21BD78941FEF5E
:10011000C0E9D1E001E098E0D92E81E0E82EF12C91
:10012000809163008F3F09F453C090916300913038
:1001300091F1913020F0923009F048C03AC080919E
:100140006800882319F01092680040C0C09ABC98DB
:10015000C49A88EE93E0FE013197F1F70197D9F741
:100160009C9B09C0C19A88EE93E0FE013197F1F79C
:100170000197D9F7C198B49B09C0C29A88EE93E061
:10018000FE013197F1F70197D9F7C2980093680003
:10019000D09287001BC0809168008823B9F08091BD
:1001A0006A00882319F010926A0010C090936A00C8
:1001B0000DC080916800882349F080916B008823EE
:1001C00019F010926B0002C000936B001093630053
:1001D000809165008F3F11F010936500809162005F
:1001E0008F3F11F010936200809164008F3F11F0F7
:1001F0001093640080916800882381F00093690067
:100200008091830081FD08C08091840090918500D9
:10021000899710F0C09838C0C09A36C0C098109224
:10022000690010926A0010926B00109261001092A7
:100230006000AD989298C398109285001092840047
:1002400010927600109275001092800010927F003C
:100250001092700010926F00109272001092710054
:10026000109282001092810010927400109273001C
:1002700010927900809179008093780080917800C5
:1002800080937700BC98C49A80916A00882361F0BB
:10029000F0927200E0927100C19A80917500909185
:1002A0007600892B31F409C010927200109271000F
:1002B00003C08091830081FDC19880916B008823E9
:1002C00061F0F0927400E0927300C29A80916F0026
:1002D00090917000892B31F409C010927400109233
:1002E000730003C08091830081FDC298BEDE18CFE9
:1002F00083E083BF8BE082BF89B7816089BF0895A7
:1003000086E085BD89B7806489BF08951F920F92EA
:100310000FB60F9211242F933F938F939F938FEFDC
:1003200084BD809186008F5F8093860080918700D6
:10033000882389F52091860080916000909161006A
:1003400030E002972817390731F5809160009091CD
:1003500061004F9700F19B9B1EC09A990DC0809140
:1003600084009091850080539547A8F48091840083
:100370009091850001960BC080918400909185003A
:10038000892B49F08091840090918500019790938A
:1003900085008093840080918400909185008997E6
:1003A00060F480918600209160003091610090E0BF
:1003B0008217930710F4AB9A01C0AB989F918F916D
:1003C0003F912F910F900FBE0F901F9018951F9285
:1003D0000F920FB60F9211242F933F934F935F9379
:1003E0006F937F938F939F93AF93BF93EF93FF93FD
:1003F000789482B7855F82BF80917D0090917E0066
:10040000019690937E0080937D00A89580917D0059
:1004100090917E0080917D0090917E00882371F400
:10042000809183008F5F8093830080918700882371
:1004300029F08091870081508093870080917D0012
:1004400090917E008F709070892B09F4FAD0809182
:100450007D0090917E0083709070892B09F067C0B9
:1004600020916900223011F0222379F480916000FC
:1004700090916100892B49F080916000909161001A
:1004800001979093610080936000213019F0233030
:1004900009F04DC080916D0090916E009695879502
:1004A0009695879524E630E0AC01429FC001439FBA
:1004B000900D529F900D1124292F3327205B3F4F21
:1004C00080916000909161008217930730F48091D1
:1004D00060009091610001960CC080916000909145
:1004E00061002817390748F48091600090916100FD
:1004F00001979093610080936000809160009091DB
:100500006100853B910530F084EB90E090936100B1
:10051000809360008091600090916100803591052A
:1005200030F480E590E090936100809360008091CA
:100530007D0090917E008F709070892B09F070C0C3
:1005400080916C008F5F80936C0080916C00843090
:1005500010F010926C0080916C00882321F08230A2
:1005600009F05EC02FC08091730090917400892BB8
:1005700039F080916F0090917000892B09F4C39A33
:100580008091730090917400892B09F4C398B39BF8
:1005900016C0809179008F5F8093790080917900F7
:1005A0008330F0F182E080937900B49939C081E022
:1005B00090E09093700080936F00C39831C01092C8
:1005C00079002EC08091710090917200892B39F0D2
:1005D0008091750090917600892B09F4AD9A8091F5
:1005E000710090917200892B09F4AD989D9B16C003
:1005F000809177008F5F80937700809177008330C0
:1006000078F082E0809377009C990AC081E090E0C6
:100610009093760080937500AD9802C01092770099
:10062000FF91EF91BF91AF919F918F917F916F91CA
:100630005F914F913F912F910F900FBE0F901F90A0
:100640001895DF93CF930F92CDB7DEB780B3807F3D
:1006500080938C0080918C0082958F7080938C00A9
:10066000809163008F3FE9F5809165008F3FC9F568
:100670009091660080918C0089278983882389F175
:10068000E0E0F0E0DE0111962E2F8C9190E00E2E2E
:1006900002C0959587950A94E2F780FF1EC080916D
:1006A0008C0090E00E2E02C0959587950A94E2F793
:1006B00080FF13C0DF01A857BF4F8C91833028F013
:1006C0008C918C3310F4E0936300E857FF4F8081E6
:1006D0008D3338F02093650004C03196E430F10585
:1006E00099F6809163008F3FA1F5809164008F3F60
:1006F00081F520E030E05DE3422F80918C0090E0B6
:10070000022E02C0959587950A94E2F7F901E85701
:10071000FF4F80FD18C08081863E18F480818F5F76
:100720008083F901E857FF4F8081823011F44093B4
:100730006200F901E857FF4F8081823429F4409329
:100740006400508301C010822F5F3F4F2430310579
:1007500099F680918C00809366000F90CF91DF9185
:1007600008958FEF80938C0090918C009093660099
:10077000809363008093640080916400809365009F
:10078000109288001092890010928A0010928B00BB
:10079000089581B38F7081BB82B3806F82BBE1DF2C
:0607A0000895F894FFCF5C
:0807A6000500FFFFFFFFFF004B
:00000001FF
